{
  "_format": "hh-sol-artifact-1",
  "contractName": "Custodian",
  "sourceName": "contracts/Custodian.sol",
  "abi": [
    {
      "inputs": [
        {
          "internalType": "contract ISwapRouter",
          "name": "_swapRouter",
          "type": "address"
        },
        {
          "internalType": "uint24",
          "name": "_poolFee",
          "type": "uint24"
        }
      ],
      "stateMutability": "nonpayable",
      "type": "constructor"
    },
    {
      "anonymous": false,
      "inputs": [
        {
          "indexed": false,
          "internalType": "string",
          "name": "ticker",
          "type": "string"
        },
        {
          "indexed": false,
          "internalType": "uint256",
          "name": "amount",
          "type": "uint256"
        },
        {
          "indexed": false,
          "internalType": "address",
          "name": "user",
          "type": "address"
        },
        {
          "indexed": false,
          "internalType": "uint256",
          "name": "userBalance",
          "type": "uint256"
        },
        {
          "indexed": false,
          "internalType": "uint256",
          "name": "custodianBalance",
          "type": "uint256"
        }
      ],
      "name": "Allocation",
      "type": "event"
    },
    {
      "anonymous": false,
      "inputs": [
        {
          "indexed": false,
          "internalType": "string",
          "name": "ticker",
          "type": "string"
        },
        {
          "indexed": false,
          "internalType": "address",
          "name": "tokenAddress",
          "type": "address"
        },
        {
          "indexed": false,
          "internalType": "uint256",
          "name": "balance",
          "type": "uint256"
        },
        {
          "indexed": false,
          "internalType": "address",
          "name": "custodianAddress",
          "type": "address"
        }
      ],
      "name": "CustodianBalanceUpdate",
      "type": "event"
    },
    {
      "anonymous": false,
      "inputs": [
        {
          "indexed": false,
          "internalType": "string",
          "name": "ticker",
          "type": "string"
        },
        {
          "indexed": false,
          "internalType": "address",
          "name": "tokenAddress",
          "type": "address"
        },
        {
          "indexed": false,
          "internalType": "address",
          "name": "sender",
          "type": "address"
        },
        {
          "indexed": false,
          "internalType": "uint256",
          "name": "amount",
          "type": "uint256"
        }
      ],
      "name": "Deposit",
      "type": "event"
    },
    {
      "anonymous": false,
      "inputs": [
        {
          "indexed": false,
          "internalType": "string",
          "name": "tokenTickerIn",
          "type": "string"
        },
        {
          "indexed": false,
          "internalType": "uint256",
          "name": "amountIn",
          "type": "uint256"
        },
        {
          "indexed": false,
          "internalType": "string",
          "name": "tokenTickerOut",
          "type": "string"
        },
        {
          "indexed": false,
          "internalType": "uint256",
          "name": "amountOut",
          "type": "uint256"
        },
        {
          "indexed": false,
          "internalType": "uint24",
          "name": "poolFee",
          "type": "uint24"
        },
        {
          "indexed": false,
          "internalType": "address",
          "name": "sender",
          "type": "address"
        }
      ],
      "name": "ExactInputSingle",
      "type": "event"
    },
    {
      "anonymous": false,
      "inputs": [
        {
          "indexed": true,
          "internalType": "address",
          "name": "previousOwner",
          "type": "address"
        },
        {
          "indexed": true,
          "internalType": "address",
          "name": "newOwner",
          "type": "address"
        }
      ],
      "name": "OwnershipTransferred",
      "type": "event"
    },
    {
      "anonymous": false,
      "inputs": [
        {
          "indexed": false,
          "internalType": "uint24",
          "name": "poolFee",
          "type": "uint24"
        },
        {
          "indexed": false,
          "internalType": "address",
          "name": "sender",
          "type": "address"
        }
      ],
      "name": "PoolFeeUpdated",
      "type": "event"
    },
    {
      "anonymous": false,
      "inputs": [
        {
          "indexed": false,
          "internalType": "string",
          "name": "ticker",
          "type": "string"
        },
        {
          "indexed": false,
          "internalType": "address",
          "name": "tokenAddress",
          "type": "address"
        }
      ],
      "name": "RegisteredERC20",
      "type": "event"
    },
    {
      "anonymous": false,
      "inputs": [
        {
          "indexed": false,
          "internalType": "string",
          "name": "ticker",
          "type": "string"
        },
        {
          "indexed": false,
          "internalType": "address",
          "name": "sender",
          "type": "address"
        },
        {
          "indexed": false,
          "internalType": "uint256",
          "name": "amount",
          "type": "uint256"
        },
        {
          "indexed": false,
          "internalType": "uint256",
          "name": "remainingBalance",
          "type": "uint256"
        }
      ],
      "name": "Withdrawal",
      "type": "event"
    },
    {
      "inputs": [
        {
          "internalType": "address",
          "name": "_user",
          "type": "address"
        },
        {
          "internalType": "string",
          "name": "_tokenTicker",
          "type": "string"
        },
        {
          "internalType": "uint256",
          "name": "_amount",
          "type": "uint256"
        }
      ],
      "name": "allocate",
      "outputs": [],
      "stateMutability": "nonpayable",
      "type": "function"
    },
    {
      "inputs": [
        {
          "internalType": "uint256",
          "name": "_amount",
          "type": "uint256"
        },
        {
          "internalType": "string",
          "name": "_tokenTicker",
          "type": "string"
        }
      ],
      "name": "depositERC20",
      "outputs": [],
      "stateMutability": "nonpayable",
      "type": "function"
    },
    {
      "inputs": [],
      "name": "depositETH",
      "outputs": [],
      "stateMutability": "payable",
      "type": "function"
    },
    {
      "inputs": [
        {
          "internalType": "address",
          "name": "_aggregatorV3Interface",
          "type": "address"
        }
      ],
      "name": "getLatestPrice",
      "outputs": [
        {
          "internalType": "int256",
          "name": "",
          "type": "int256"
        },
        {
          "internalType": "uint8",
          "name": "",
          "type": "uint8"
        }
      ],
      "stateMutability": "view",
      "type": "function"
    },
    {
      "inputs": [],
      "name": "owner",
      "outputs": [
        {
          "internalType": "address",
          "name": "",
          "type": "address"
        }
      ],
      "stateMutability": "view",
      "type": "function"
    },
    {
      "inputs": [],
      "name": "poolFee",
      "outputs": [
        {
          "internalType": "uint24",
          "name": "",
          "type": "uint24"
        }
      ],
      "stateMutability": "view",
      "type": "function"
    },
    {
      "inputs": [
        {
          "internalType": "string",
          "name": "_tokenTicker",
          "type": "string"
        },
        {
          "internalType": "address",
          "name": "_tokenAddress",
          "type": "address"
        }
      ],
      "name": "registerERC20",
      "outputs": [],
      "stateMutability": "nonpayable",
      "type": "function"
    },
    {
      "inputs": [],
      "name": "renounceOwnership",
      "outputs": [],
      "stateMutability": "nonpayable",
      "type": "function"
    },
    {
      "inputs": [
        {
          "internalType": "string",
          "name": "_tokenTicker",
          "type": "string"
        }
      ],
      "name": "setCustodianBalance",
      "outputs": [],
      "stateMutability": "nonpayable",
      "type": "function"
    },
    {
      "inputs": [
        {
          "internalType": "uint24",
          "name": "_poolFee",
          "type": "uint24"
        }
      ],
      "name": "setPoolFee",
      "outputs": [],
      "stateMutability": "nonpayable",
      "type": "function"
    },
    {
      "inputs": [
        {
          "internalType": "uint256",
          "name": "_amountIn",
          "type": "uint256"
        },
        {
          "internalType": "string",
          "name": "_tokenTickerIn",
          "type": "string"
        },
        {
          "internalType": "string",
          "name": "_tokenTickerOut",
          "type": "string"
        }
      ],
      "name": "swapExactInputSingle",
      "outputs": [
        {
          "internalType": "uint256",
          "name": "_amountOut",
          "type": "uint256"
        }
      ],
      "stateMutability": "nonpayable",
      "type": "function"
    },
    {
      "inputs": [],
      "name": "swapRouter",
      "outputs": [
        {
          "internalType": "contract ISwapRouter",
          "name": "",
          "type": "address"
        }
      ],
      "stateMutability": "view",
      "type": "function"
    },
    {
      "inputs": [
        {
          "internalType": "string",
          "name": "",
          "type": "string"
        }
      ],
      "name": "tickerToERC20Contract",
      "outputs": [
        {
          "internalType": "address",
          "name": "",
          "type": "address"
        }
      ],
      "stateMutability": "view",
      "type": "function"
    },
    {
      "inputs": [
        {
          "internalType": "uint256",
          "name": "",
          "type": "uint256"
        }
      ],
      "name": "tickers",
      "outputs": [
        {
          "internalType": "string",
          "name": "",
          "type": "string"
        }
      ],
      "stateMutability": "view",
      "type": "function"
    },
    {
      "inputs": [
        {
          "internalType": "address",
          "name": "newOwner",
          "type": "address"
        }
      ],
      "name": "transferOwnership",
      "outputs": [],
      "stateMutability": "nonpayable",
      "type": "function"
    },
    {
      "inputs": [
        {
          "internalType": "address",
          "name": "",
          "type": "address"
        },
        {
          "internalType": "string",
          "name": "",
          "type": "string"
        }
      ],
      "name": "userBalanceMap",
      "outputs": [
        {
          "internalType": "uint256",
          "name": "",
          "type": "uint256"
        }
      ],
      "stateMutability": "view",
      "type": "function"
    },
    {
      "inputs": [
        {
          "internalType": "string",
          "name": "_tokenTicker",
          "type": "string"
        },
        {
          "internalType": "uint256",
          "name": "_amount",
          "type": "uint256"
        }
      ],
      "name": "withdraw",
      "outputs": [],
      "stateMutability": "nonpayable",
      "type": "function"
    }
  ],
  "bytecode": "0x60a06040523480156200001157600080fd5b5060405162003a6038038062003a6083398181016040528101906200003791906200023c565b620000576200004b620000b260201b60201c565b620000ba60201b60201c565b8173ffffffffffffffffffffffffffffffffffffffff1660808173ffffffffffffffffffffffffffffffffffffffff168152505080600460006101000a81548162ffffff021916908362ffffff160217905550505062000283565b600033905090565b60008060009054906101000a900473ffffffffffffffffffffffffffffffffffffffff169050816000806101000a81548173ffffffffffffffffffffffffffffffffffffffff021916908373ffffffffffffffffffffffffffffffffffffffff1602179055508173ffffffffffffffffffffffffffffffffffffffff168173ffffffffffffffffffffffffffffffffffffffff167f8be0079c531659141344cd1fd0a4f28419497f9722a3daafe3b4186f6b6457e060405160405180910390a35050565b600080fd5b600073ffffffffffffffffffffffffffffffffffffffff82169050919050565b6000620001b08262000183565b9050919050565b6000620001c482620001a3565b9050919050565b620001d681620001b7565b8114620001e257600080fd5b50565b600081519050620001f681620001cb565b92915050565b600062ffffff82169050919050565b6200021681620001fc565b81146200022257600080fd5b50565b60008151905062000236816200020b565b92915050565b600080604083850312156200025657620002556200017e565b5b60006200026685828601620001e5565b9250506020620002798582860162000225565b9150509250929050565b6080516137b3620002ad60003960008181610ff7015281816111480152611b4f01526137b36000f3fe6080604052600436106100fe5760003560e01c8063760d3cc711610095578063bc533a8511610064578063bc533a851461031e578063c31c9c071461035b578063c45c98e214610386578063f2fde38b146103c3578063f6326fb3146103ec576100fe565b8063760d3cc71461026457806387ae2f3f146102a15780638da5cb5b146102ca578063a6a4a061146102f5576100fe565b8063663abe33116100d1578063663abe33146101be5780636fcd9313146101e7578063715018a61461022457806373dd250c1461023b576100fe565b8063089fe6aa1461010357806316345f181461012e57806323fa569b1461016c57806330b39a6214610195575b600080fd5b34801561010f57600080fd5b506101186103f6565b60405161012591906120f2565b60405180910390f35b34801561013a57600080fd5b506101556004803603810190610150919061217f565b61040b565b6040516101639291906121e1565b60405180910390f35b34801561017857600080fd5b50610193600480360381019061018e9190612350565b610574565b005b3480156101a157600080fd5b506101bc60048036038101906101b791906123cf565b61082f565b005b3480156101ca57600080fd5b506101e560048036038101906101e0919061242b565b610be3565b005b3480156101f357600080fd5b5061020e60048036038101906102099190612487565b610d6e565b60405161021b9190612521565b60405180910390f35b34801561023057600080fd5b50610239611331565b005b34801561024757600080fd5b50610262600480360381019061025d9190612568565b611345565b005b34801561027057600080fd5b5061028b60048036038101906102869190612350565b6113b9565b60405161029891906125a4565b60405180910390f35b3480156102ad57600080fd5b506102c860048036038101906102c391906125bf565b611402565b005b3480156102d657600080fd5b506102df611833565b6040516102ec91906125a4565b60405180910390f35b34801561030157600080fd5b5061031c6004803603810190610317919061262e565b61185c565b005b34801561032a57600080fd5b506103456004803603810190610340919061268a565b611b12565b6040516103529190612521565b60405180910390f35b34801561036757600080fd5b50610370611b4d565b60405161037d9190612745565b60405180910390f35b34801561039257600080fd5b506103ad60048036038101906103a89190612760565b611b71565b6040516103ba9190612815565b60405180910390f35b3480156103cf57600080fd5b506103ea60048036038101906103e5919061217f565b611c1d565b005b6103f4611ca1565b005b600460009054906101000a900462ffffff1681565b600080600083905060008060008060008573ffffffffffffffffffffffffffffffffffffffff1663feaf968c6040518163ffffffff1660e01b815260040160a06040518083038186803b15801561046157600080fd5b505afa158015610475573d6000803e3d6000fd5b505050506040513d601f19601f8201168201806040525081019061049991906128ba565b94509450945094509450600082116104e6576040517f08c379a00000000000000000000000000000000000000000000000000000000081526004016104dd90612981565b60405180910390fd5b838673ffffffffffffffffffffffffffffffffffffffff1663313ce5676040518163ffffffff1660e01b815260040160206040518083038186803b15801561052d57600080fd5b505afa158015610541573d6000803e3d6000fd5b505050506040513d601f19601f8201168201806040525081019061056591906129cd565b97509750505050505050915091565b61057c611d92565b600073ffffffffffffffffffffffffffffffffffffffff166002826040516105a49190612a36565b908152602001604051809103902060009054906101000a900473ffffffffffffffffffffffffffffffffffffffff1673ffffffffffffffffffffffffffffffffffffffff16141561062a576040517f08c379a000000000000000000000000000000000000000000000000000000000815260040161062190612abf565b60405180910390fd5b600060028260405161063c9190612a36565b908152602001604051809103902060009054906101000a900473ffffffffffffffffffffffffffffffffffffffff1690508073ffffffffffffffffffffffffffffffffffffffff166370a08231306040518263ffffffff1660e01b81526004016106a691906125a4565b60206040518083038186803b1580156106be57600080fd5b505afa1580156106d2573d6000803e3d6000fd5b505050506040513d601f19601f820116820180604052508101906106f69190612adf565b600160003073ffffffffffffffffffffffffffffffffffffffff1673ffffffffffffffffffffffffffffffffffffffff168152602001908152602001600020836040516107439190612a36565b9081526020016040518091039020819055507f27165c87cd5eba432bfdef09de7fcf77709d8d5699edbe0dc0e0399b9165617f826002846040516107879190612a36565b908152602001604051809103902060009054906101000a900473ffffffffffffffffffffffffffffffffffffffff16600160003073ffffffffffffffffffffffffffffffffffffffff1673ffffffffffffffffffffffffffffffffffffffff168152602001908152602001600020856040516108039190612a36565b908152602001604051809103902054306040516108239493929190612b0c565b60405180910390a15050565b6000600160003373ffffffffffffffffffffffffffffffffffffffff1673ffffffffffffffffffffffffffffffffffffffff1681526020019081526020016000208360405161087e9190612a36565b908152602001604051809103902054116108cd576040517f08c379a00000000000000000000000000000000000000000000000000000000081526004016108c490612bca565b60405180910390fd5b80600160003373ffffffffffffffffffffffffffffffffffffffff1673ffffffffffffffffffffffffffffffffffffffff1681526020019081526020016000208360405161091b9190612a36565b908152602001604051809103902054101561096b576040517f08c379a000000000000000000000000000000000000000000000000000000000815260040161096290612c5c565b60405180910390fd5b80600160003373ffffffffffffffffffffffffffffffffffffffff1673ffffffffffffffffffffffffffffffffffffffff168152602001908152602001600020836040516109b99190612a36565b908152602001604051809103902060008282546109d69190612cab565b925050819055506040518060400160405280600381526020017f45544800000000000000000000000000000000000000000000000000000000008152508051906020012082805190602001201415610a74573373ffffffffffffffffffffffffffffffffffffffff166108fc829081150290604051600060405180830381858888f19350505050158015610a6e573d6000803e3d6000fd5b50610b47565b6000600283604051610a869190612a36565b908152602001604051809103902060009054906101000a900473ffffffffffffffffffffffffffffffffffffffff1690508073ffffffffffffffffffffffffffffffffffffffff1663a9059cbb33846040518363ffffffff1660e01b8152600401610af2929190612cdf565b602060405180830381600087803b158015610b0c57600080fd5b505af1158015610b20573d6000803e3d6000fd5b505050506040513d601f19601f82011682018060405250810190610b449190612d40565b50505b7f4d22b0d2116e6c42613d8186662e36e8091d7be9c9cb24fc800deca9b55c184a823383600160003373ffffffffffffffffffffffffffffffffffffffff1673ffffffffffffffffffffffffffffffffffffffff16815260200190815260200160002086604051610bb89190612a36565b908152602001604051809103902054604051610bd79493929190612d6d565b60405180910390a15050565b610beb611d92565b600073ffffffffffffffffffffffffffffffffffffffff16600283604051610c139190612a36565b908152602001604051809103902060009054906101000a900473ffffffffffffffffffffffffffffffffffffffff1673ffffffffffffffffffffffffffffffffffffffff1614610c98576040517f08c379a0000000000000000000000000000000000000000000000000000000008152600401610c8f90612e2b565b60405180910390fd5b80600283604051610ca99190612a36565b908152602001604051809103902060006101000a81548173ffffffffffffffffffffffffffffffffffffffff021916908373ffffffffffffffffffffffffffffffffffffffff160217905550600382908060018154018082558091505060019003906000526020600020016000909190919091509080519060200190610d30929190612031565b507f5bd14d49a6826a4ef0e583e50c9d0d50b9b7a0631496c1d9939262eb5b6af3718282604051610d62929190612e4b565b60405180910390a15050565b600080600460009054906101000a900462ffffff1662ffffff161015610dc9576040517f08c379a0000000000000000000000000000000000000000000000000000000008152600401610dc090612ec7565b60405180910390fd5b6000600160003373ffffffffffffffffffffffffffffffffffffffff1673ffffffffffffffffffffffffffffffffffffffff16815260200190815260200160002084604051610e189190612a36565b90815260200160405180910390205411610e67576040517f08c379a0000000000000000000000000000000000000000000000000000000008152600401610e5e90612bca565b60405180910390fd5b83600160003373ffffffffffffffffffffffffffffffffffffffff1673ffffffffffffffffffffffffffffffffffffffff16815260200190815260200160002084604051610eb59190612a36565b9081526020016040518091039020541015610f05576040517f08c379a0000000000000000000000000000000000000000000000000000000008152600401610efc90612f59565b60405180910390fd5b600073ffffffffffffffffffffffffffffffffffffffff16600283604051610f2d9190612a36565b908152602001604051809103902060009054906101000a900473ffffffffffffffffffffffffffffffffffffffff1673ffffffffffffffffffffffffffffffffffffffff161415610fb3576040517f08c379a0000000000000000000000000000000000000000000000000000000008152600401610faa90612feb565b60405180910390fd5b61101c600284604051610fc69190612a36565b908152602001604051809103902060009054906101000a900473ffffffffffffffffffffffffffffffffffffffff167f000000000000000000000000000000000000000000000000000000000000000086611e10565b600060405180610100016040528060028660405161103a9190612a36565b908152602001604051809103902060009054906101000a900473ffffffffffffffffffffffffffffffffffffffff1673ffffffffffffffffffffffffffffffffffffffff1681526020016002856040516110949190612a36565b908152602001604051809103902060009054906101000a900473ffffffffffffffffffffffffffffffffffffffff1673ffffffffffffffffffffffffffffffffffffffff168152602001600460009054906101000a900462ffffff1662ffffff1681526020013073ffffffffffffffffffffffffffffffffffffffff16815260200142815260200186815260200160008152602001600073ffffffffffffffffffffffffffffffffffffffff1681525090507f000000000000000000000000000000000000000000000000000000000000000073ffffffffffffffffffffffffffffffffffffffff1663414bf389826040518263ffffffff1660e01b815260040161119f91906130e9565b602060405180830381600087803b1580156111b957600080fd5b505af11580156111cd573d6000803e3d6000fd5b505050506040513d601f19601f820116820180604052508101906111f19190612adf565b915084600160003373ffffffffffffffffffffffffffffffffffffffff1673ffffffffffffffffffffffffffffffffffffffff168152602001908152602001600020856040516112419190612a36565b9081526020016040518091039020600082825461125e9190612cab565b9250508190555081600160003373ffffffffffffffffffffffffffffffffffffffff1673ffffffffffffffffffffffffffffffffffffffff168152602001908152602001600020846040516112b39190612a36565b908152602001604051809103902060008282546112d09190613105565b925050819055507f5f239304cf4d6ceaa30b98e46552c7f5b56b2db6e0cb7c474c08ad38bddb99d184868585600460009054906101000a900462ffffff16336040516113219695949392919061315b565b60405180910390a1509392505050565b611339611d92565b6113436000611f65565b565b61134d611d92565b80600460006101000a81548162ffffff021916908362ffffff1602179055507fa9f5de90142b5ff408ab512f394b8b7ffe5f2bacad4adf2ce947911571d6587b600460009054906101000a900462ffffff16336040516113ae9291906131ca565b60405180910390a150565b6002818051602081018201805184825260208301602085012081835280955050505050506000915054906101000a900473ffffffffffffffffffffffffffffffffffffffff1681565b61140a611d92565b600073ffffffffffffffffffffffffffffffffffffffff166002836040516114329190612a36565b908152602001604051809103902060009054906101000a900473ffffffffffffffffffffffffffffffffffffffff1673ffffffffffffffffffffffffffffffffffffffff1614156114b8576040517f08c379a00000000000000000000000000000000000000000000000000000000081526004016114af90612abf565b60405180910390fd5b60006002836040516114ca9190612a36565b908152602001604051809103902060009054906101000a900473ffffffffffffffffffffffffffffffffffffffff169050818173ffffffffffffffffffffffffffffffffffffffff166370a08231306040518263ffffffff1660e01b815260040161153591906125a4565b60206040518083038186803b15801561154d57600080fd5b505afa158015611561573d6000803e3d6000fd5b505050506040513d601f19601f820116820180604052508101906115859190612adf565b10156115c6576040517f08c379a00000000000000000000000000000000000000000000000000000000081526004016115bd90613265565b60405180910390fd5b8073ffffffffffffffffffffffffffffffffffffffff1663a9059cbb85846040518363ffffffff1660e01b8152600401611601929190612cdf565b602060405180830381600087803b15801561161b57600080fd5b505af115801561162f573d6000803e3d6000fd5b505050506040513d601f19601f820116820180604052508101906116539190612d40565b5081600160003073ffffffffffffffffffffffffffffffffffffffff1673ffffffffffffffffffffffffffffffffffffffff168152602001908152602001600020846040516116a29190612a36565b908152602001604051809103902060008282546116bf9190612cab565b9250508190555081600160008673ffffffffffffffffffffffffffffffffffffffff1673ffffffffffffffffffffffffffffffffffffffff168152602001908152602001600020846040516117149190612a36565b908152602001604051809103902060008282546117319190613105565b925050819055507f7438d8e09c22d190f5dfd0f8cfef2371a6ee55c51336cef68a3633e8cb18b9bc838386600160008973ffffffffffffffffffffffffffffffffffffffff1673ffffffffffffffffffffffffffffffffffffffff168152602001908152602001600020876040516117a99190612a36565b908152602001604051809103902054600160003073ffffffffffffffffffffffffffffffffffffffff1673ffffffffffffffffffffffffffffffffffffffff168152602001908152602001600020886040516118059190612a36565b908152602001604051809103902054604051611825959493929190613285565b60405180910390a150505050565b60008060009054906101000a900473ffffffffffffffffffffffffffffffffffffffff16905090565b6000821161189f576040517f08c379a000000000000000000000000000000000000000000000000000000000815260040161189690613351565b60405180910390fd5b600073ffffffffffffffffffffffffffffffffffffffff166002826040516118c79190612a36565b908152602001604051809103902060009054906101000a900473ffffffffffffffffffffffffffffffffffffffff1673ffffffffffffffffffffffffffffffffffffffff16141561194d576040517f08c379a000000000000000000000000000000000000000000000000000000000815260040161194490612abf565b60405180910390fd5b600060028260405161195f9190612a36565b908152602001604051809103902060009054906101000a900473ffffffffffffffffffffffffffffffffffffffff1690508073ffffffffffffffffffffffffffffffffffffffff166323b872dd3330866040518463ffffffff1660e01b81526004016119cd93929190613371565b602060405180830381600087803b1580156119e757600080fd5b505af11580156119fb573d6000803e3d6000fd5b505050506040513d601f19601f82011682018060405250810190611a1f9190612d40565b5082600160003373ffffffffffffffffffffffffffffffffffffffff1673ffffffffffffffffffffffffffffffffffffffff16815260200190815260200160002083604051611a6e9190612a36565b90815260200160405180910390206000828254611a8b9190613105565b925050819055507fbcc8cd2c6e5dc7f6bf361db6db5b1effcc954dd916cb0327f587568a15210aca82600284604051611ac49190612a36565b908152602001604051809103902060009054906101000a900473ffffffffffffffffffffffffffffffffffffffff163386604051611b0594939291906133a8565b60405180910390a1505050565b600160205281600052604060002081805160208101820180518482526020830160208501208183528095505050505050600091509150505481565b7f000000000000000000000000000000000000000000000000000000000000000081565b60038181548110611b8157600080fd5b906000526020600020016000915090508054611b9c90613423565b80601f0160208091040260200160405190810160405280929190818152602001828054611bc890613423565b8015611c155780601f10611bea57610100808354040283529160200191611c15565b820191906000526020600020905b815481529060010190602001808311611bf857829003601f168201915b505050505081565b611c25611d92565b600073ffffffffffffffffffffffffffffffffffffffff168173ffffffffffffffffffffffffffffffffffffffff161415611c95576040517f08c379a0000000000000000000000000000000000000000000000000000000008152600401611c8c906134c7565b60405180910390fd5b611c9e81611f65565b50565b60003411611ce4576040517f08c379a0000000000000000000000000000000000000000000000000000000008152600401611cdb90613559565b60405180910390fd5b34600160003373ffffffffffffffffffffffffffffffffffffffff1673ffffffffffffffffffffffffffffffffffffffff168152602001908152602001600020604051611d30906135c5565b90815260200160405180910390206000828254611d4d9190613105565b925050819055507fbcc8cd2c6e5dc7f6bf361db6db5b1effcc954dd916cb0327f587568a15210aca60003334604051611d88939291906135fd565b60405180910390a1565b611d9a612029565b73ffffffffffffffffffffffffffffffffffffffff16611db8611833565b73ffffffffffffffffffffffffffffffffffffffff1614611e0e576040517f08c379a0000000000000000000000000000000000000000000000000000000008152600401611e0590613693565b60405180910390fd5b565b6000808473ffffffffffffffffffffffffffffffffffffffff1663095ea7b360e01b8585604051602401611e45929190612cdf565b604051602081830303815290604052907bffffffffffffffffffffffffffffffffffffffffffffffffffffffff19166020820180517bffffffffffffffffffffffffffffffffffffffffffffffffffffffff8381831617835250505050604051611eaf91906136fa565b6000604051808303816000865af19150503d8060008114611eec576040519150601f19603f3d011682016040523d82523d6000602084013e611ef1565b606091505b5091509150818015611f1f5750600081511480611f1e575080806020019051810190611f1d9190612d40565b5b5b611f5e576040517f08c379a0000000000000000000000000000000000000000000000000000000008152600401611f559061375d565b60405180910390fd5b5050505050565b60008060009054906101000a900473ffffffffffffffffffffffffffffffffffffffff169050816000806101000a81548173ffffffffffffffffffffffffffffffffffffffff021916908373ffffffffffffffffffffffffffffffffffffffff1602179055508173ffffffffffffffffffffffffffffffffffffffff168173ffffffffffffffffffffffffffffffffffffffff167f8be0079c531659141344cd1fd0a4f28419497f9722a3daafe3b4186f6b6457e060405160405180910390a35050565b600033905090565b82805461203d90613423565b90600052602060002090601f01602090048101928261205f57600085556120a6565b82601f1061207857805160ff19168380011785556120a6565b828001600101855582156120a6579182015b828111156120a557825182559160200191906001019061208a565b5b5090506120b391906120b7565b5090565b5b808211156120d05760008160009055506001016120b8565b5090565b600062ffffff82169050919050565b6120ec816120d4565b82525050565b600060208201905061210760008301846120e3565b92915050565b6000604051905090565b600080fd5b600080fd5b600073ffffffffffffffffffffffffffffffffffffffff82169050919050565b600061214c82612121565b9050919050565b61215c81612141565b811461216757600080fd5b50565b60008135905061217981612153565b92915050565b60006020828403121561219557612194612117565b5b60006121a38482850161216a565b91505092915050565b6000819050919050565b6121bf816121ac565b82525050565b600060ff82169050919050565b6121db816121c5565b82525050565b60006040820190506121f660008301856121b6565b61220360208301846121d2565b9392505050565b600080fd5b600080fd5b6000601f19601f8301169050919050565b7f4e487b7100000000000000000000000000000000000000000000000000000000600052604160045260246000fd5b61225d82612214565b810181811067ffffffffffffffff8211171561227c5761227b612225565b5b80604052505050565b600061228f61210d565b905061229b8282612254565b919050565b600067ffffffffffffffff8211156122bb576122ba612225565b5b6122c482612214565b9050602081019050919050565b82818337600083830152505050565b60006122f36122ee846122a0565b612285565b90508281526020810184848401111561230f5761230e61220f565b5b61231a8482856122d1565b509392505050565b600082601f8301126123375761233661220a565b5b81356123478482602086016122e0565b91505092915050565b60006020828403121561236657612365612117565b5b600082013567ffffffffffffffff8111156123845761238361211c565b5b61239084828501612322565b91505092915050565b6000819050919050565b6123ac81612399565b81146123b757600080fd5b50565b6000813590506123c9816123a3565b92915050565b600080604083850312156123e6576123e5612117565b5b600083013567ffffffffffffffff8111156124045761240361211c565b5b61241085828601612322565b9250506020612421858286016123ba565b9150509250929050565b6000806040838503121561244257612441612117565b5b600083013567ffffffffffffffff8111156124605761245f61211c565b5b61246c85828601612322565b925050602061247d8582860161216a565b9150509250929050565b6000806000606084860312156124a05761249f612117565b5b60006124ae868287016123ba565b935050602084013567ffffffffffffffff8111156124cf576124ce61211c565b5b6124db86828701612322565b925050604084013567ffffffffffffffff8111156124fc576124fb61211c565b5b61250886828701612322565b9150509250925092565b61251b81612399565b82525050565b60006020820190506125366000830184612512565b92915050565b612545816120d4565b811461255057600080fd5b50565b6000813590506125628161253c565b92915050565b60006020828403121561257e5761257d612117565b5b600061258c84828501612553565b91505092915050565b61259e81612141565b82525050565b60006020820190506125b96000830184612595565b92915050565b6000806000606084860312156125d8576125d7612117565b5b60006125e68682870161216a565b935050602084013567ffffffffffffffff8111156126075761260661211c565b5b61261386828701612322565b9250506040612624868287016123ba565b9150509250925092565b6000806040838503121561264557612644612117565b5b6000612653858286016123ba565b925050602083013567ffffffffffffffff8111156126745761267361211c565b5b61268085828601612322565b9150509250929050565b600080604083850312156126a1576126a0612117565b5b60006126af8582860161216a565b925050602083013567ffffffffffffffff8111156126d0576126cf61211c565b5b6126dc85828601612322565b9150509250929050565b6000819050919050565b600061270b61270661270184612121565b6126e6565b612121565b9050919050565b600061271d826126f0565b9050919050565b600061272f82612712565b9050919050565b61273f81612724565b82525050565b600060208201905061275a6000830184612736565b92915050565b60006020828403121561277657612775612117565b5b6000612784848285016123ba565b91505092915050565b600081519050919050565b600082825260208201905092915050565b60005b838110156127c75780820151818401526020810190506127ac565b838111156127d6576000848401525b50505050565b60006127e78261278d565b6127f18185612798565b93506128018185602086016127a9565b61280a81612214565b840191505092915050565b6000602082019050818103600083015261282f81846127dc565b905092915050565b600069ffffffffffffffffffff82169050919050565b61285681612837565b811461286157600080fd5b50565b6000815190506128738161284d565b92915050565b612882816121ac565b811461288d57600080fd5b50565b60008151905061289f81612879565b92915050565b6000815190506128b4816123a3565b92915050565b600080600080600060a086880312156128d6576128d5612117565b5b60006128e488828901612864565b95505060206128f588828901612890565b9450506040612906888289016128a5565b9350506060612917888289016128a5565b925050608061292888828901612864565b9150509295509295909350565b7f526f756e64206e6f7420636f6d706c6574650000000000000000000000000000600082015250565b600061296b601283612798565b915061297682612935565b602082019050919050565b6000602082019050818103600083015261299a8161295e565b9050919050565b6129aa816121c5565b81146129b557600080fd5b50565b6000815190506129c7816129a1565b92915050565b6000602082840312156129e3576129e2612117565b5b60006129f1848285016129b8565b91505092915050565b600081905092915050565b6000612a108261278d565b612a1a81856129fa565b9350612a2a8185602086016127a9565b80840191505092915050565b6000612a428284612a05565b915081905092915050565b7f596f75206d757374206669727374207265676973746572207468697320746f6b60008201527f656e2077697468207265676973746572546f6b656e206d6574686f642e000000602082015250565b6000612aa9603d83612798565b9150612ab482612a4d565b604082019050919050565b60006020820190508181036000830152612ad881612a9c565b9050919050565b600060208284031215612af557612af4612117565b5b6000612b03848285016128a5565b91505092915050565b60006080820190508181036000830152612b2681876127dc565b9050612b356020830186612595565b612b426040830185612512565b612b4f6060830184612595565b95945050505050565b7f596f7520646f6e2774206861766520612062616c616e636520666f722074686960008201527f7320746f6b656e2e000000000000000000000000000000000000000000000000602082015250565b6000612bb4602883612798565b9150612bbf82612b58565b604082019050919050565b60006020820190508181036000830152612be381612ba7565b9050919050565b7f596f75722062616c616e6365206973206c657373207468616e20796f7572207760008201527f69746864726177616c20616d6f756e7400000000000000000000000000000000602082015250565b6000612c46603083612798565b9150612c5182612bea565b604082019050919050565b60006020820190508181036000830152612c7581612c39565b9050919050565b7f4e487b7100000000000000000000000000000000000000000000000000000000600052601160045260246000fd5b6000612cb682612399565b9150612cc183612399565b925082821015612cd457612cd3612c7c565b5b828203905092915050565b6000604082019050612cf46000830185612595565b612d016020830184612512565b9392505050565b60008115159050919050565b612d1d81612d08565b8114612d2857600080fd5b50565b600081519050612d3a81612d14565b92915050565b600060208284031215612d5657612d55612117565b5b6000612d6484828501612d2b565b91505092915050565b60006080820190508181036000830152612d8781876127dc565b9050612d966020830186612595565b612da36040830185612512565b612db06060830184612512565b95945050505050565b7f5468697320746f6b656e2068617320616c7265616479206265656e207265676960008201527f7374657265642e00000000000000000000000000000000000000000000000000602082015250565b6000612e15602783612798565b9150612e2082612db9565b604082019050919050565b60006020820190508181036000830152612e4481612e08565b9050919050565b60006040820190508181036000830152612e6581856127dc565b9050612e746020830184612595565b9392505050565b7f54686520506f6f6c46656520686173206e6f74206265656e2073657400000000600082015250565b6000612eb1601c83612798565b9150612ebc82612e7b565b602082019050919050565b60006020820190508181036000830152612ee081612ea4565b9050919050565b7f596f75722062616c616e6365206973206c657373207468616e2074686520616d60008201527f6f756e7420796f752077616e7420746f20737761700000000000000000000000602082015250565b6000612f43603583612798565b9150612f4e82612ee7565b604082019050919050565b60006020820190508181036000830152612f7281612f36565b9050919050565b7f596f75206d7573742066697273742072656769737465722074686520546f6b6560008201527f6e4f75742077697468207265676973746572546f6b656e206d6574686f640000602082015250565b6000612fd5603e83612798565b9150612fe082612f79565b604082019050919050565b6000602082019050818103600083015261300481612fc8565b9050919050565b61301481612141565b82525050565b613023816120d4565b82525050565b61303281612399565b82525050565b61304181612121565b82525050565b6101008201600082015161305e600085018261300b565b506020820151613071602085018261300b565b506040820151613084604085018261301a565b506060820151613097606085018261300b565b5060808201516130aa6080850182613029565b5060a08201516130bd60a0850182613029565b5060c08201516130d060c0850182613029565b5060e08201516130e360e0850182613038565b50505050565b6000610100820190506130ff6000830184613047565b92915050565b600061311082612399565b915061311b83612399565b9250827fffffffffffffffffffffffffffffffffffffffffffffffffffffffffffffffff038211156131505761314f612c7c565b5b828201905092915050565b600060c082019050818103600083015261317581896127dc565b90506131846020830188612512565b818103604083015261319681876127dc565b90506131a56060830186612512565b6131b260808301856120e3565b6131bf60a0830184612595565b979650505050505050565b60006040820190506131df60008301856120e3565b6131ec6020830184612595565b9392505050565b7f596f7520646f6e2774206861766520656e6f7567682066756e647320746f206160008201527f6c6c6f63617465207468617420616d6f756e7400000000000000000000000000602082015250565b600061324f603383612798565b915061325a826131f3565b604082019050919050565b6000602082019050818103600083015261327e81613242565b9050919050565b600060a082019050818103600083015261329f81886127dc565b90506132ae6020830187612512565b6132bb6040830186612595565b6132c86060830185612512565b6132d56080830184612512565b9695505050505050565b7f546865204552433230206465706f73697420616d6f756e74206d75737420626560008201527f2067726561746572207468616e207a65726f2e00000000000000000000000000602082015250565b600061333b603383612798565b9150613346826132df565b604082019050919050565b6000602082019050818103600083015261336a8161332e565b9050919050565b60006060820190506133866000830186612595565b6133936020830185612595565b6133a06040830184612512565b949350505050565b600060808201905081810360008301526133c281876127dc565b90506133d16020830186612595565b6133de6040830185612595565b6133eb6060830184612512565b95945050505050565b7f4e487b7100000000000000000000000000000000000000000000000000000000600052602260045260246000fd5b6000600282049050600182168061343b57607f821691505b6020821081141561344f5761344e6133f4565b5b50919050565b7f4f776e61626c653a206e6577206f776e657220697320746865207a65726f206160008201527f6464726573730000000000000000000000000000000000000000000000000000602082015250565b60006134b1602683612798565b91506134bc82613455565b604082019050919050565b600060208201905081810360008301526134e0816134a4565b9050919050565b7f54686520455448206465706f73697420616d6f756e74206d757374206265206760008201527f72656174686572207468616e207a65726f2e0000000000000000000000000000602082015250565b6000613543603283612798565b915061354e826134e7565b604082019050919050565b6000602082019050818103600083015261357281613536565b9050919050565b7f4554480000000000000000000000000000000000000000000000000000000000600082015250565b60006135af6003836129fa565b91506135ba82613579565b600382019050919050565b60006135d0826135a2565b9150819050919050565b60006135e7600383612798565b91506135f282613579565b602082019050919050565b60006080820190508181036000830152613616816135da565b90506136256020830186612595565b6136326040830185612595565b61363f6060830184612512565b949350505050565b7f4f776e61626c653a2063616c6c6572206973206e6f7420746865206f776e6572600082015250565b600061367d602083612798565b915061368882613647565b602082019050919050565b600060208201905081810360008301526136ac81613670565b9050919050565b600081519050919050565b600081905092915050565b60006136d4826136b3565b6136de81856136be565b93506136ee8185602086016127a9565b80840191505092915050565b600061370682846136c9565b915081905092915050565b7f5341000000000000000000000000000000000000000000000000000000000000600082015250565b6000613747600283612798565b915061375282613711565b602082019050919050565b600060208201905081810360008301526137768161373a565b905091905056fea264697066735822122055b4bcc3fdfa7ad645644c0dc95705009b0268429b546500fc8d20c334bdd5d964736f6c63430008090033",
  "linkReferences": {},
  "deployedLinkReferences": {}
}